{
  "_format": "hh-sol-artifact-1",
  "contractName": "CollectigameNFT",
  "sourceName": "src/contracts/CollectigameNFT.sol",
  "abi": [
    {
      "inputs": [
        {
          "internalType": "string",
          "name": "godCID_",
          "type": "string"
        },
        {
          "internalType": "string",
          "name": "_notRevealedArtCID",
          "type": "string"
        },
        {
          "internalType": "uint256",
          "name": "_upgradeRequestFeeInWei",
          "type": "uint256"
        },
        {
          "internalType": "address",
          "name": "_owner",
          "type": "address"
        },
        {
          "internalType": "address",
          "name": "platformMultisig",
          "type": "address"
        },
        {
          "internalType": "address",
          "name": "decentralTitan",
          "type": "address"
        }
      ],
      "stateMutability": "nonpayable",
      "type": "constructor"
    },
    {
      "inputs": [],
      "name": "ApprovalCallerNotOwnerNorApproved",
      "type": "error"
    },
    {
      "inputs": [],
      "name": "ApprovalQueryForNonexistentToken",
      "type": "error"
    },
    {
      "inputs": [],
      "name": "ApprovalToCurrentOwner",
      "type": "error"
    },
    {
      "inputs": [],
      "name": "ApproveToCaller",
      "type": "error"
    },
    {
      "inputs": [],
      "name": "AuxQueryForZeroAddress",
      "type": "error"
    },
    {
      "inputs": [],
      "name": "BalanceQueryForZeroAddress",
      "type": "error"
    },
    {
      "inputs": [],
      "name": "MintToZeroAddress",
      "type": "error"
    },
    {
      "inputs": [],
      "name": "MintZeroQuantity",
      "type": "error"
    },
    {
      "inputs": [],
      "name": "MintedQueryForZeroAddress",
      "type": "error"
    },
    {
      "inputs": [],
      "name": "OwnerQueryForNonexistentToken",
      "type": "error"
    },
    {
      "inputs": [],
      "name": "TransferCallerNotOwnerNorApproved",
      "type": "error"
    },
    {
      "inputs": [],
      "name": "TransferFromIncorrectOwner",
      "type": "error"
    },
    {
      "inputs": [],
      "name": "TransferToNonERC721ReceiverImplementer",
      "type": "error"
    },
    {
      "inputs": [],
      "name": "TransferToZeroAddress",
      "type": "error"
    },
    {
      "anonymous": false,
      "inputs": [
        {
          "indexed": true,
          "internalType": "address",
          "name": "owner",
          "type": "address"
        },
        {
          "indexed": true,
          "internalType": "address",
          "name": "approved",
          "type": "address"
        },
        {
          "indexed": true,
          "internalType": "uint256",
          "name": "tokenId",
          "type": "uint256"
        }
      ],
      "name": "Approval",
      "type": "event"
    },
    {
      "anonymous": false,
      "inputs": [
        {
          "indexed": true,
          "internalType": "address",
          "name": "owner",
          "type": "address"
        },
        {
          "indexed": true,
          "internalType": "address",
          "name": "operator",
          "type": "address"
        },
        {
          "indexed": false,
          "internalType": "bool",
          "name": "approved",
          "type": "bool"
        }
      ],
      "name": "ApprovalForAll",
      "type": "event"
    },
    {
      "anonymous": false,
      "inputs": [
        {
          "indexed": false,
          "internalType": "uint8",
          "name": "numberOfGods",
          "type": "uint8"
        },
        {
          "indexed": false,
          "internalType": "uint256",
          "name": "startTimeStamp",
          "type": "uint256"
        }
      ],
      "name": "AuctionsInitialized",
      "type": "event"
    },
    {
      "anonymous": false,
      "inputs": [
        {
          "indexed": true,
          "internalType": "address",
          "name": "previousOwner",
          "type": "address"
        },
        {
          "indexed": true,
          "internalType": "address",
          "name": "newOwner",
          "type": "address"
        }
      ],
      "name": "OwnershipTransferred",
      "type": "event"
    },
    {
      "anonymous": false,
      "inputs": [
        {
          "indexed": true,
          "internalType": "uint8",
          "name": "roleId",
          "type": "uint8"
        },
        {
          "indexed": true,
          "internalType": "address",
          "name": "oldAddr",
          "type": "address"
        },
        {
          "indexed": true,
          "internalType": "address",
          "name": "newAddr",
          "type": "address"
        }
      ],
      "name": "RoleAccepted",
      "type": "event"
    },
    {
      "anonymous": false,
      "inputs": [
        {
          "indexed": true,
          "internalType": "uint8",
          "name": "roleId",
          "type": "uint8"
        },
        {
          "indexed": true,
          "internalType": "address",
          "name": "currentAddr",
          "type": "address"
        },
        {
          "indexed": true,
          "internalType": "address",
          "name": "proposedAddr",
          "type": "address"
        }
      ],
      "name": "RoleProposed",
      "type": "event"
    },
    {
      "anonymous": false,
      "inputs": [
        {
          "indexed": false,
          "internalType": "uint16",
          "name": "tokenId",
          "type": "uint16"
        }
      ],
      "name": "TokenUpgraded",
      "type": "event"
    },
    {
      "anonymous": false,
      "inputs": [
        {
          "indexed": true,
          "internalType": "address",
          "name": "from",
          "type": "address"
        },
        {
          "indexed": true,
          "internalType": "address",
          "name": "to",
          "type": "address"
        },
        {
          "indexed": true,
          "internalType": "uint256",
          "name": "tokenId",
          "type": "uint256"
        }
      ],
      "name": "Transfer",
      "type": "event"
    },
    {
      "anonymous": false,
      "inputs": [
        {
          "indexed": false,
          "internalType": "uint16",
          "name": "tokenId",
          "type": "uint16"
        },
        {
          "indexed": false,
          "internalType": "uint256",
          "name": "value",
          "type": "uint256"
        }
      ],
      "name": "UpgradeRequestPayment",
      "type": "event"
    },
    {
      "stateMutability": "payable",
      "type": "fallback"
    },
    {
      "inputs": [],
      "name": "AUCTION_DROP_INTERVAL",
      "outputs": [
        {
          "internalType": "uint256",
          "name": "",
          "type": "uint256"
        }
      ],
      "stateMutability": "view",
      "type": "function"
    },
    {
      "inputs": [],
      "name": "AUCTION_DURATION",
      "outputs": [
        {
          "internalType": "uint256",
          "name": "",
          "type": "uint256"
        }
      ],
      "stateMutability": "view",
      "type": "function"
    },
    {
      "inputs": [],
      "name": "AUCTION_START_TIME",
      "outputs": [
        {
          "internalType": "uint256",
          "name": "",
          "type": "uint256"
        }
      ],
      "stateMutability": "view",
      "type": "function"
    },
    {
      "inputs": [],
      "name": "DECENTRAL_TITAN_ROLE_ID",
      "outputs": [
        {
          "internalType": "uint8",
          "name": "",
          "type": "uint8"
        }
      ],
      "stateMutability": "view",
      "type": "function"
    },
    {
      "inputs": [],
      "name": "MAX_MINT_PER_ADDRESS",
      "outputs": [
        {
          "internalType": "uint16",
          "name": "",
          "type": "uint16"
        }
      ],
      "stateMutability": "view",
      "type": "function"
    },
    {
      "inputs": [],
      "name": "MAX_SUPPLY",
      "outputs": [
        {
          "internalType": "uint16",
          "name": "",
          "type": "uint16"
        }
      ],
      "stateMutability": "view",
      "type": "function"
    },
    {
      "inputs": [],
      "name": "MINT_PRICE_IN_WEI",
      "outputs": [
        {
          "internalType": "uint256",
          "name": "",
          "type": "uint256"
        }
      ],
      "stateMutability": "view",
      "type": "function"
    },
    {
      "inputs": [],
      "name": "NUMBER_OF_TOKEN_FOR_AUCTION",
      "outputs": [
        {
          "internalType": "uint8",
          "name": "",
          "type": "uint8"
        }
      ],
      "stateMutability": "view",
      "type": "function"
    },
    {
      "inputs": [],
      "name": "PLATFORM_MULTISIG_ROLE_ID",
      "outputs": [
        {
          "internalType": "uint8",
          "name": "",
          "type": "uint8"
        }
      ],
      "stateMutability": "view",
      "type": "function"
    },
    {
      "inputs": [],
      "name": "ROYALTY_FEE_PERCENT",
      "outputs": [
        {
          "internalType": "uint8",
          "name": "",
          "type": "uint8"
        }
      ],
      "stateMutability": "view",
      "type": "function"
    },
    {
      "inputs": [
        {
          "internalType": "uint256",
          "name": "",
          "type": "uint256"
        }
      ],
      "name": "_ownerships",
      "outputs": [
        {
          "internalType": "address",
          "name": "addr",
          "type": "address"
        },
        {
          "internalType": "uint64",
          "name": "startTimestamp",
          "type": "uint64"
        },
        {
          "internalType": "bool",
          "name": "burned",
          "type": "bool"
        }
      ],
      "stateMutability": "view",
      "type": "function"
    },
    {
      "inputs": [
        {
          "internalType": "uint8",
          "name": "roleId",
          "type": "uint8"
        }
      ],
      "name": "acceptAuthority",
      "outputs": [],
      "stateMutability": "nonpayable",
      "type": "function"
    },
    {
      "inputs": [
        {
          "internalType": "address",
          "name": "to",
          "type": "address"
        },
        {
          "internalType": "uint256",
          "name": "tokenId",
          "type": "uint256"
        }
      ],
      "name": "approve",
      "outputs": [],
      "stateMutability": "nonpayable",
      "type": "function"
    },
    {
      "inputs": [
        {
          "internalType": "uint8",
          "name": "",
          "type": "uint8"
        }
      ],
      "name": "auctions",
      "outputs": [
        {
          "internalType": "uint8",
          "name": "tokenId",
          "type": "uint8"
        },
        {
          "internalType": "uint256",
          "name": "startAt",
          "type": "uint256"
        },
        {
          "internalType": "uint256",
          "name": "expireAt",
          "type": "uint256"
        },
        {
          "internalType": "uint256",
          "name": "startPrice",
          "type": "uint256"
        },
        {
          "internalType": "uint256",
          "name": "endPrice",
          "type": "uint256"
        },
        {
          "internalType": "uint256",
          "name": "auctionDropPerStep",
          "type": "uint256"
        },
        {
          "internalType": "bool",
          "name": "isSold",
          "type": "bool"
        },
        {
          "internalType": "uint256",
          "name": "purchasedPrice",
          "type": "uint256"
        },
        {
          "internalType": "address",
          "name": "owner",
          "type": "address"
        }
      ],
      "stateMutability": "view",
      "type": "function"
    },
    {
      "inputs": [
        {
          "internalType": "address",
          "name": "owner",
          "type": "address"
        }
      ],
      "name": "balanceOf",
      "outputs": [
        {
          "internalType": "uint256",
          "name": "",
          "type": "uint256"
        }
      ],
      "stateMutability": "view",
      "type": "function"
    },
    {
      "inputs": [
        {
          "internalType": "uint8",
          "name": "day",
          "type": "uint8"
        }
      ],
      "name": "buyAGodInAuction",
      "outputs": [],
      "stateMutability": "payable",
      "type": "function"
    },
    {
      "inputs": [
        {
          "internalType": "uint16",
          "name": "tokenId",
          "type": "uint16"
        }
      ],
      "name": "buyBackToken",
      "outputs": [],
      "stateMutability": "nonpayable",
      "type": "function"
    },
    {
      "inputs": [],
      "name": "finishAuction",
      "outputs": [],
      "stateMutability": "nonpayable",
      "type": "function"
    },
    {
      "inputs": [],
      "name": "finishMinting",
      "outputs": [],
      "stateMutability": "nonpayable",
      "type": "function"
    },
    {
      "inputs": [],
      "name": "getAddresses",
      "outputs": [
        {
          "components": [
            {
              "internalType": "address",
              "name": "daoTreasuryContract",
              "type": "address"
            },
            {
              "internalType": "address",
              "name": "whiteListVerifier",
              "type": "address"
            },
            {
              "internalType": "address",
              "name": "gameTreasuryContract",
              "type": "address"
            }
          ],
          "internalType": "struct ICollectiGame.ContractAddresses",
          "name": "",
          "type": "tuple"
        }
      ],
      "stateMutability": "view",
      "type": "function"
    },
    {
      "inputs": [
        {
          "internalType": "uint256",
          "name": "tokenId",
          "type": "uint256"
        }
      ],
      "name": "getApproved",
      "outputs": [
        {
          "internalType": "address",
          "name": "",
          "type": "address"
        }
      ],
      "stateMutability": "view",
      "type": "function"
    },
    {
      "inputs": [
        {
          "internalType": "uint8",
          "name": "day",
          "type": "uint8"
        }
      ],
      "name": "getAuctionPrice",
      "outputs": [
        {
          "internalType": "uint256",
          "name": "",
          "type": "uint256"
        }
      ],
      "stateMutability": "view",
      "type": "function"
    },
    {
      "inputs": [],
      "name": "getAuctionsData",
      "outputs": [
        {
          "components": [
            {
              "internalType": "uint8",
              "name": "tokenId",
              "type": "uint8"
            },
            {
              "internalType": "uint256",
              "name": "startAt",
              "type": "uint256"
            },
            {
              "internalType": "uint256",
              "name": "expireAt",
              "type": "uint256"
            },
            {
              "internalType": "uint256",
              "name": "startPrice",
              "type": "uint256"
            },
            {
              "internalType": "uint256",
              "name": "endPrice",
              "type": "uint256"
            },
            {
              "internalType": "uint256",
              "name": "auctionDropPerStep",
              "type": "uint256"
            },
            {
              "internalType": "bool",
              "name": "isSold",
              "type": "bool"
            },
            {
              "internalType": "uint256",
              "name": "purchasedPrice",
              "type": "uint256"
            },
            {
              "internalType": "address",
              "name": "owner",
              "type": "address"
            }
          ],
          "internalType": "struct ICollectiGame.Auction[]",
          "name": "",
          "type": "tuple[]"
        }
      ],
      "stateMutability": "view",
      "type": "function"
    },
    {
      "inputs": [],
      "name": "getState",
      "outputs": [
        {
          "components": [
            {
              "internalType": "bool",
              "name": "initialized",
              "type": "bool"
            },
            {
              "internalType": "bool",
              "name": "auctionIsActive",
              "type": "bool"
            },
            {
              "internalType": "bool",
              "name": "whitelistMintingIsActive",
              "type": "bool"
            },
            {
              "internalType": "bool",
              "name": "mintingIsActive",
              "type": "bool"
            },
            {
              "internalType": "bool",
              "name": "artIsRevealed",
              "type": "bool"
            },
            {
              "internalType": "bool",
              "name": "finished",
              "type": "bool"
            }
          ],
          "internalType": "struct ICollectiGame.ContractState",
          "name": "",
          "type": "tuple"
        }
      ],
      "stateMutability": "view",
      "type": "function"
    },
    {
      "inputs": [
        {
          "components": [
            {
              "internalType": "uint256",
              "name": "startPrice",
              "type": "uint256"
            },
            {
              "internalType": "uint256",
              "name": "endPrice",
              "type": "uint256"
            },
            {
              "internalType": "uint256",
              "name": "auctionDropPerStep",
              "type": "uint256"
            }
          ],
          "internalType": "struct ICollectiGame.AuctionConfig[]",
          "name": "configs",
          "type": "tuple[]"
        },
        {
          "internalType": "address",
          "name": "daoTreasury",
          "type": "address"
        },
        {
          "internalType": "address",
          "name": "royaltyReceiverContract",
          "type": "address"
        },
        {
          "internalType": "address",
          "name": "whiteListVerifier",
          "type": "address"
        }
      ],
      "name": "initializer",
      "outputs": [],
      "stateMutability": "nonpayable",
      "type": "function"
    },
    {
      "inputs": [
        {
          "internalType": "address",
          "name": "owner",
          "type": "address"
        },
        {
          "internalType": "address",
          "name": "operator",
          "type": "address"
        }
      ],
      "name": "isApprovedForAll",
      "outputs": [
        {
          "internalType": "bool",
          "name": "",
          "type": "bool"
        }
      ],
      "stateMutability": "view",
      "type": "function"
    },
    {
      "inputs": [
        {
          "internalType": "uint16",
          "name": "",
          "type": "uint16"
        }
      ],
      "name": "isGodToken",
      "outputs": [
        {
          "internalType": "bool",
          "name": "",
          "type": "bool"
        }
      ],
      "stateMutability": "view",
      "type": "function"
    },
    {
      "inputs": [
        {
          "internalType": "address",
          "name": "account_",
          "type": "address"
        },
        {
          "internalType": "uint8",
          "name": "maxQuantity_",
          "type": "uint8"
        },
        {
          "internalType": "enum CollectigameNFT.WhiteListType",
          "name": "whiteListType_",
          "type": "uint8"
        },
        {
          "internalType": "bytes",
          "name": "sig_",
          "type": "bytes"
        }
      ],
      "name": "isWhitelisted",
      "outputs": [
        {
          "internalType": "bool",
          "name": "",
          "type": "bool"
        }
      ],
      "stateMutability": "view",
      "type": "function"
    },
    {
      "inputs": [],
      "name": "name",
      "outputs": [
        {
          "internalType": "string",
          "name": "",
          "type": "string"
        }
      ],
      "stateMutability": "view",
      "type": "function"
    },
    {
      "inputs": [],
      "name": "nextOwnerToExplicitlySet",
      "outputs": [
        {
          "internalType": "uint256",
          "name": "",
          "type": "uint256"
        }
      ],
      "stateMutability": "view",
      "type": "function"
    },
    {
      "inputs": [],
      "name": "numberOfRoles",
      "outputs": [
        {
          "internalType": "uint8",
          "name": "",
          "type": "uint8"
        }
      ],
      "stateMutability": "view",
      "type": "function"
    },
    {
      "inputs": [],
      "name": "owner",
      "outputs": [
        {
          "internalType": "address",
          "name": "",
          "type": "address"
        }
      ],
      "stateMutability": "view",
      "type": "function"
    },
    {
      "inputs": [
        {
          "internalType": "uint256",
          "name": "tokenId",
          "type": "uint256"
        }
      ],
      "name": "ownerOf",
      "outputs": [
        {
          "internalType": "address",
          "name": "",
          "type": "address"
        }
      ],
      "stateMutability": "view",
      "type": "function"
    },
    {
      "inputs": [
        {
          "internalType": "uint8",
          "name": "roleId",
          "type": "uint8"
        },
        {
          "internalType": "address",
          "name": "proposedAddr",
          "type": "address"
        }
      ],
      "name": "proposeAuthority",
      "outputs": [],
      "stateMutability": "nonpayable",
      "type": "function"
    },
    {
      "inputs": [
        {
          "internalType": "uint256",
          "name": "quantity",
          "type": "uint256"
        }
      ],
      "name": "publicMint",
      "outputs": [],
      "stateMutability": "payable",
      "type": "function"
    },
    {
      "inputs": [
        {
          "internalType": "uint8",
          "name": "roleId",
          "type": "uint8"
        }
      ],
      "name": "renounceAuthority",
      "outputs": [],
      "stateMutability": "nonpayable",
      "type": "function"
    },
    {
      "inputs": [],
      "name": "renounceOwnership",
      "outputs": [],
      "stateMutability": "nonpayable",
      "type": "function"
    },
    {
      "inputs": [
        {
          "internalType": "string",
          "name": "ipfsCid",
          "type": "string"
        }
      ],
      "name": "revealArt",
      "outputs": [],
      "stateMutability": "nonpayable",
      "type": "function"
    },
    {
      "inputs": [
        {
          "internalType": "uint8",
          "name": "",
          "type": "uint8"
        }
      ],
      "name": "roles",
      "outputs": [
        {
          "internalType": "address",
          "name": "addr",
          "type": "address"
        },
        {
          "internalType": "address",
          "name": "proposedAddr",
          "type": "address"
        },
        {
          "internalType": "bool",
          "name": "isRenounced",
          "type": "bool"
        }
      ],
      "stateMutability": "view",
      "type": "function"
    },
    {
      "inputs": [
        {
          "internalType": "uint256",
          "name": "",
          "type": "uint256"
        },
        {
          "internalType": "uint256",
          "name": "value",
          "type": "uint256"
        }
      ],
      "name": "royaltyInfo",
      "outputs": [
        {
          "internalType": "address",
          "name": "receiver",
          "type": "address"
        },
        {
          "internalType": "uint256",
          "name": "royaltyAmount",
          "type": "uint256"
        }
      ],
      "stateMutability": "view",
      "type": "function"
    },
    {
      "inputs": [
        {
          "internalType": "address",
          "name": "from",
          "type": "address"
        },
        {
          "internalType": "address",
          "name": "to",
          "type": "address"
        },
        {
          "internalType": "uint256",
          "name": "tokenId",
          "type": "uint256"
        }
      ],
      "name": "safeTransferFrom",
      "outputs": [],
      "stateMutability": "nonpayable",
      "type": "function"
    },
    {
      "inputs": [
        {
          "internalType": "address",
          "name": "from",
          "type": "address"
        },
        {
          "internalType": "address",
          "name": "to",
          "type": "address"
        },
        {
          "internalType": "uint256",
          "name": "tokenId",
          "type": "uint256"
        },
        {
          "internalType": "bytes",
          "name": "_data",
          "type": "bytes"
        }
      ],
      "name": "safeTransferFrom",
      "outputs": [],
      "stateMutability": "nonpayable",
      "type": "function"
    },
    {
      "inputs": [
        {
          "internalType": "address",
          "name": "operator",
          "type": "address"
        },
        {
          "internalType": "bool",
          "name": "approved",
          "type": "bool"
        }
      ],
      "name": "setApprovalForAll",
      "outputs": [],
      "stateMutability": "nonpayable",
      "type": "function"
    },
    {
      "inputs": [
        {
          "internalType": "address",
          "name": "daoTreasuryContract",
          "type": "address"
        }
      ],
      "name": "setDaoTreasury",
      "outputs": [],
      "stateMutability": "nonpayable",
      "type": "function"
    },
    {
      "inputs": [
        {
          "internalType": "uint256",
          "name": "quantity",
          "type": "uint256"
        }
      ],
      "name": "setOwnersExplicit",
      "outputs": [],
      "stateMutability": "nonpayable",
      "type": "function"
    },
    {
      "inputs": [
        {
          "internalType": "address",
          "name": "royaltyDistributerContract",
          "type": "address"
        }
      ],
      "name": "setRoyaltyReceiver",
      "outputs": [],
      "stateMutability": "nonpayable",
      "type": "function"
    },
    {
      "inputs": [
        {
          "internalType": "uint256",
          "name": "_upgradeRequestFeeInWei",
          "type": "uint256"
        }
      ],
      "name": "setUpgradeRequestFeeInWei",
      "outputs": [],
      "stateMutability": "nonpayable",
      "type": "function"
    },
    {
      "inputs": [],
      "name": "startPublicMinting",
      "outputs": [],
      "stateMutability": "nonpayable",
      "type": "function"
    },
    {
      "inputs": [],
      "name": "startWhiteListMinting",
      "outputs": [],
      "stateMutability": "nonpayable",
      "type": "function"
    },
    {
      "inputs": [
        {
          "internalType": "bytes4",
          "name": "interfaceId",
          "type": "bytes4"
        }
      ],
      "name": "supportsInterface",
      "outputs": [
        {
          "internalType": "bool",
          "name": "",
          "type": "bool"
        }
      ],
      "stateMutability": "view",
      "type": "function"
    },
    {
      "inputs": [],
      "name": "symbol",
      "outputs": [
        {
          "internalType": "string",
          "name": "",
          "type": "string"
        }
      ],
      "stateMutability": "view",
      "type": "function"
    },
    {
      "inputs": [
        {
          "internalType": "uint256",
          "name": "index",
          "type": "uint256"
        }
      ],
      "name": "tokenByIndex",
      "outputs": [
        {
          "internalType": "uint256",
          "name": "",
          "type": "uint256"
        }
      ],
      "stateMutability": "view",
      "type": "function"
    },
    {
      "inputs": [
        {
          "internalType": "uint16",
          "name": "",
          "type": "uint16"
        }
      ],
      "name": "tokenIsUpgraded",
      "outputs": [
        {
          "internalType": "bool",
          "name": "",
          "type": "bool"
        }
      ],
      "stateMutability": "view",
      "type": "function"
    },
    {
      "inputs": [
        {
          "internalType": "address",
          "name": "owner",
          "type": "address"
        },
        {
          "internalType": "uint256",
          "name": "index",
          "type": "uint256"
        }
      ],
      "name": "tokenOfOwnerByIndex",
      "outputs": [
        {
          "internalType": "uint256",
          "name": "",
          "type": "uint256"
        }
      ],
      "stateMutability": "view",
      "type": "function"
    },
    {
      "inputs": [
        {
          "internalType": "uint256",
          "name": "tokenId_",
          "type": "uint256"
        }
      ],
      "name": "tokenURI",
      "outputs": [
        {
          "internalType": "string",
          "name": "",
          "type": "string"
        }
      ],
      "stateMutability": "view",
      "type": "function"
    },
    {
      "inputs": [],
      "name": "totalSupply",
      "outputs": [
        {
          "internalType": "uint256",
          "name": "",
          "type": "uint256"
        }
      ],
      "stateMutability": "view",
      "type": "function"
    },
    {
      "inputs": [],
      "name": "transferEthToDao",
      "outputs": [],
      "stateMutability": "payable",
      "type": "function"
    },
    {
      "inputs": [
        {
          "internalType": "address",
          "name": "from",
          "type": "address"
        },
        {
          "internalType": "address",
          "name": "to",
          "type": "address"
        },
        {
          "internalType": "uint256",
          "name": "tokenId",
          "type": "uint256"
        }
      ],
      "name": "transferFrom",
      "outputs": [],
      "stateMutability": "nonpayable",
      "type": "function"
    },
    {
      "inputs": [
        {
          "internalType": "address",
          "name": "newOwner",
          "type": "address"
        }
      ],
      "name": "transferOwnership",
      "outputs": [],
      "stateMutability": "nonpayable",
      "type": "function"
    },
    {
      "inputs": [
        {
          "internalType": "string",
          "name": "GodCid",
          "type": "string"
        },
        {
          "internalType": "string",
          "name": "HumanCid",
          "type": "string"
        }
      ],
      "name": "updateCID",
      "outputs": [],
      "stateMutability": "nonpayable",
      "type": "function"
    },
    {
      "inputs": [],
      "name": "upgradeRequestFeeInWei",
      "outputs": [
        {
          "internalType": "uint256",
          "name": "",
          "type": "uint256"
        }
      ],
      "stateMutability": "view",
      "type": "function"
    },
    {
      "inputs": [
        {
          "internalType": "uint256",
          "name": "",
          "type": "uint256"
        }
      ],
      "name": "upgradeRequestFeeIsPaid",
      "outputs": [
        {
          "internalType": "bool",
          "name": "",
          "type": "bool"
        }
      ],
      "stateMutability": "view",
      "type": "function"
    },
    {
      "inputs": [
        {
          "internalType": "string",
          "name": "ipfsCid",
          "type": "string"
        },
        {
          "internalType": "uint16",
          "name": "tokenId",
          "type": "uint16"
        },
        {
          "internalType": "bool",
          "name": "isGodNow",
          "type": "bool"
        }
      ],
      "name": "upgradeToken",
      "outputs": [],
      "stateMutability": "nonpayable",
      "type": "function"
    },
    {
      "inputs": [
        {
          "internalType": "uint16",
          "name": "tokenId",
          "type": "uint16"
        }
      ],
      "name": "upgradeTokenRequestFee",
      "outputs": [],
      "stateMutability": "payable",
      "type": "function"
    },
    {
      "inputs": [
        {
          "internalType": "uint8",
          "name": "maxQuantity",
          "type": "uint8"
        },
        {
          "internalType": "uint8",
          "name": "quantity",
          "type": "uint8"
        },
        {
          "internalType": "enum CollectigameNFT.WhiteListType",
          "name": "whiteListType",
          "type": "uint8"
        },
        {
          "internalType": "bytes",
          "name": "sig",
          "type": "bytes"
        }
      ],
      "name": "whitelistMinting",
      "outputs": [],
      "stateMutability": "payable",
      "type": "function"
    },
    {
      "stateMutability": "payable",
      "type": "receive"
    }
  ],
  "bytecode": "0x60a060405260006008553480156200001657600080fd5b5060405162006695380380620066958339810160408190526200003991620007bf565b6002836040518060400160405280601181526020017044656d6d6f7274616c547265617375726560781b81525060405180604001604052806002815260200161111560f21b81525081600290805190602001906200009992919062000649565b508051620000af90600390602084019062000649565b50506000805550620000c181620002a9565b506009805460ff60a01b1916600160a01b60ff93909316929092029190911790556001600b556040805160c08101825260008082526020820181905281830181905260608083018290526080830182905260a0909201819052600d805465ffffffffffff1916905582516002808252928101909352919081602001602082028036833701905050905082816000815181106200016d57634e487b7160e01b600052603260045260246000fd5b60200260200101906001600160a01b031690816001600160a01b0316815250508181600181518110620001b057634e487b7160e01b600052603260045260246000fd5b6001600160a01b039290921660209283029190910182015260408051600280825260608201835260009391929091830190803683370190505090506000816000815181106200020f57634e487b7160e01b600052603260045260246000fd5b602002602001019060ff16908160ff16815250506001816001815181106200024757634e487b7160e01b600052603260045260246000fd5b60ff90921660209283029190910190910152620002658282620002fb565b87516200027a9060119060208b019062000649565b508651620002909060129060208a019062000649565b505050600c9390935550504260805250620008e6915050565b600980546001600160a01b038381166001600160a01b0319831681179093556040519116919082907f8be0079c531659141344cd1fd0a4f28419497f9722a3daafe3b4186f6b6457e090600090a35050565b8051825114620003785760405162461bcd60e51b815260206004820152603660248201527f746865206e756d626572206f662061646472657373657320616e64207468652060448201527f726f6c6520696473206d75737420626520657175616c0000000000000000000060648201526084015b60405180910390fd5b6009548251600160a01b90910460ff1614620003e25760405162461bcd60e51b815260206004820152602260248201527f726561636820746f206d6178206e756d626572206f6620617574686f72697469604482015261657360f01b60648201526084016200036f565b60005b82518160ff161015620006445760006001600160a01b0316600a6000848460ff16815181106200042557634e487b7160e01b600052603260045260246000fd5b60209081029190910181015160ff168252810191909152604001600020546001600160a01b0316146200049b5760405162461bcd60e51b815260206004820152601360248201527f726f6c6520616c7265616479206578697374730000000000000000000000000060448201526064016200036f565b600a6000838360ff1681518110620004c357634e487b7160e01b600052603260045260246000fd5b60209081029190910181015160ff90811683529082019290925260400160002060010154600160a01b900416156200053e5760405162461bcd60e51b815260206004820152601d60248201527f726f6c6520616c7265616479207573656420616e64207265766f6b656400000060448201526064016200036f565b6040518060600160405280848360ff16815181106200056d57634e487b7160e01b600052603260045260246000fd5b60200260200101516001600160a01b0316815260200160006001600160a01b0316815260200160001515815250600a6000848460ff1681518110620005c257634e487b7160e01b600052603260045260246000fd5b60209081029190910181015160ff168252818101929092526040908101600020835181546001600160a01b0319166001600160a01b039182161782559284015160019091018054949092015192166001600160a81b031990931692909217600160a01b91151591909102179055806200063b81620008a3565b915050620003e5565b505050565b828054620006579062000866565b90600052602060002090601f0160209004810192826200067b5760008555620006c6565b82601f106200069657805160ff1916838001178555620006c6565b82800160010185558215620006c6579182015b82811115620006c6578251825591602001919060010190620006a9565b50620006d4929150620006d8565b5090565b5b80821115620006d45760008155600101620006d9565b80516001600160a01b03811681146200070757600080fd5b919050565b600082601f8301126200071d578081fd5b81516001600160401b03808211156200073a576200073a620008d0565b604051601f8301601f19908116603f01168101908282118183101715620007655762000765620008d0565b8160405283815260209250868385880101111562000781578485fd5b8491505b83821015620007a4578582018301518183018401529082019062000785565b83821115620007b557848385830101525b9695505050505050565b60008060008060008060c08789031215620007d8578182fd5b86516001600160401b0380821115620007ef578384fd5b620007fd8a838b016200070c565b9750602089015191508082111562000813578384fd5b506200082289828a016200070c565b955050604087015193506200083a60608801620006ef565b92506200084a60808801620006ef565b91506200085a60a08801620006ef565b90509295509295509295565b600181811c908216806200087b57607f821691505b602082108114156200089d57634e487b7160e01b600052602260045260246000fd5b50919050565b600060ff821660ff811415620008c757634e487b7160e01b82526011600452602482fd5b60010192915050565b634e487b7160e01b600052604160045260246000fd5b608051615d856200091060003960008181610ec60152818161443901526144830152615d856000f3fe6080604052600436106103d25760003560e01c80636352211e116101fd578063a22cb46511610118578063c87b56dd116100ab578063d9c65cbc1161007a578063d9c65cbc14610e33578063dd28e1ca14610e3b578063e985e9c514610e6b578063f17d076f14610eb4578063f2fde38b14610ee857610412565b8063c87b56dd14610dbd578063d0b50d8e14610ddd578063d514355514610dfd578063d7224ba014610e1d57610412565b8063ae14d45d116100e7578063ae14d45d14610d62578063b88d4fde14610d77578063c046e13014610d97578063c4f1634d14610daa57610412565b8063a22cb46514610bd1578063a271e52514610bf1578063a39fac1214610c08578063a80a783c14610c9a57610412565b80638dc251e31161019057806396a5d5ba1161015f57806396a5d5ba14610b5c5780639b643f6814610b7c5780639da058e914610b9c578063a124df5d14610bb157610412565b80638dc251e314610aec578063953495ff14610b0c57806395d89b4114610b27578063965d08af14610b3c57610412565b80637d64bcb4116101cc5780637d64bcb414610a155780637fec168414610a2a5780638951454314610aae5780638da5cb5b14610ace57610412565b80636352211e146109ad57806364b1152f146109cd57806370a08231146109e0578063715018a614610a0057610412565b80632fa3ce7d116102ed5780634f20b23e116102805780635a6c18f51161024f5780635a6c18f5146109325780635cae01d3146109625780635fd78bbb1461097857806360dc13a91461098d57610412565b80634f20b23e146108a15780634f6ccce7146108c15780635744d0f5146108e1578063579938a31461090257610412565b8063430ca46f116102bc578063430ca46f146108355780634a3d02511461084a5780634a878e5f1461086c5780634c0e123b1461088c57610412565b80632fa3ce7d146107b757806332cb6b0c146107d75780633acd6cb21461080057806342842e0e1461081557610412565b80631865c57d116103655780632a55205a116103345780632a55205a146107255780632d20fb60146107645780632db11544146107845780632f745c591461079757610412565b80631865c57d146105ca5780631a2dac6e146106cf5780631db16f20146106e557806323b872dd1461070557610412565b80630bee5eb9116103a15780630bee5eb91461050b5780630e1e0ef51461050b57806317dbb5321461053257806318160ddd146105a757610412565b806301ffc9a71461045a57806306fdde031461048f578063081812fc146104b1578063095ea7b3146104e957610412565b366104125760405162461bcd60e51b815260206004820152600b60248201526a139bdd08105b1b1bddd95960aa1b60448201526064015b60405180910390fd5b60405162461bcd60e51b815260206004820152601360248201527f43616c6c2056616c69642046756e6374696f6e000000000000000000000000006044820152606401610409565b34801561046657600080fd5b5061047a6104753660046156b4565b610f08565b60405190151581526020015b60405180910390f35b34801561049b57600080fd5b506104a4610f90565b6040516104869190615b3c565b3480156104bd57600080fd5b506104d16104cc366004615855565b611022565b6040516001600160a01b039091168152602001610486565b3480156104f557600080fd5b5061050961050436600461555a565b611066565b005b34801561051757600080fd5b50610520600a81565b60405160ff9091168152602001610486565b34801561053e57600080fd5b5061057f61054d36600461588e565b600a60205260009081526040902080546001909101546001600160a01b0391821691811690600160a01b900460ff1683565b604080516001600160a01b039485168152939092166020840152151590820152606001610486565b3480156105b357600080fd5b50600154600054035b604051908152602001610486565b3480156105d657600080fd5b506106776040805160c081018252600080825260208201819052918101829052606081018290526080810182905260a0810191909152506040805160c081018252600d5460ff8082161515835261010082048116151560208401526201000082048116151593830193909352630100000081048316151560608301526401000000008104831615156080830152600160281b9004909116151560a082015290565b6040516104869190600060c08201905082511515825260208301511515602083015260408301511515604083015260608301511515606083015260808301511515608083015260a0830151151560a083015292915050565b3480156106db57600080fd5b506105bc600c5481565b3480156106f157600080fd5b50610509610700366004615780565b611111565b34801561071157600080fd5b50610509610720366004615470565b6113a7565b34801561073157600080fd5b5061074561074036600461586d565b6113b2565b604080516001600160a01b039093168352602083019190915201610486565b34801561077057600080fd5b5061050961077f366004615855565b6113ed565b610509610792366004615855565b6113f9565b3480156107a357600080fd5b506105bc6107b236600461555a565b61162c565b3480156107c357600080fd5b506105096107d236600461583b565b6117cb565b3480156107e357600080fd5b506107ed611e6181565b60405161ffff9091168152602001610486565b34801561080c57600080fd5b506107ed600381565b34801561082157600080fd5b50610509610830366004615470565b611a4d565b34801561084157600080fd5b50610509611a68565b34801561085657600080fd5b5061085f611bad565b6040516104869190615a96565b34801561087857600080fd5b5061050961088736600461571f565b611d27565b34801561089857600080fd5b50610509611dc7565b3480156108ad57600080fd5b506105096108bc3660046155f7565b611f18565b3480156108cd57600080fd5b506105bc6108dc366004615855565b612170565b3480156108ed57600080fd5b5060095461052090600160a01b900460ff1681565b34801561090e57600080fd5b5061047a61091d36600461583b565b60156020526000908152604090205460ff1681565b34801561093e57600080fd5b5061047a61094d36600461583b565b60176020526000908152604090205460ff1681565b34801561096e57600080fd5b506105bc61025881565b34801561098457600080fd5b50610520600181565b34801561099957600080fd5b506105bc6109a836600461588e565b6121dd565b3480156109b957600080fd5b506104d16109c8366004615855565b612325565b6105096109db36600461583b565b612337565b3480156109ec57600080fd5b506105bc6109fb36600461542d565b612534565b348015610a0c57600080fd5b50610509612583565b348015610a2157600080fd5b506105096125e9565b348015610a3657600080fd5b50610a7e610a45366004615855565b6004602052600090815260409020546001600160a01b03811690600160a01b810467ffffffffffffffff1690600160e01b900460ff1683565b604080516001600160a01b03909416845267ffffffffffffffff9092166020840152151590820152606001610486565b348015610aba57600080fd5b50610509610ac93660046156ec565b6126f6565b348015610ada57600080fd5b506009546001600160a01b03166104d1565b348015610af857600080fd5b50610509610b0736600461542d565b61281c565b348015610b1857600080fd5b506105bc66f8b0a10e47000081565b348015610b3357600080fd5b506104a46128d9565b348015610b4857600080fd5b50610509610b5736600461588e565b6128e8565b348015610b6857600080fd5b50610509610b773660046158a8565b6129c4565b348015610b8857600080fd5b5061047a610b97366004615583565b612b6d565b348015610ba857600080fd5b50610509612c95565b348015610bbd57600080fd5b50610509610bcc36600461542d565b612dfd565b348015610bdd57600080fd5b50610509610bec366004615524565b612e7f565b348015610bfd57600080fd5b506105bc6201518081565b348015610c1457600080fd5b50610c6860408051606081018252600080825260208201819052918101919091525060408051606081018252600e546001600160a01b039081168252600f5481166020830152601054169181019190915290565b6040805182516001600160a01b0390811682526020808501518216908301529282015190921690820152606001610486565b348015610ca657600080fd5b50610d0f610cb536600461588e565b60186020526000908152604090208054600182015460028301546003840154600485015460058601546006870154600788015460089098015460ff978816989697959694959394929390911691906001600160a01b031689565b6040805160ff909a168a5260208a0198909852968801959095526060870193909352608086019190915260a0850152151560c084015260e08301526001600160a01b031661010082015261012001610486565b348015610d6e57600080fd5b50610520600081565b348015610d8357600080fd5b50610509610d923660046154ab565b612f15565b610509610da53660046158c3565b612f66565b610509610db836600461588e565b613257565b348015610dc957600080fd5b506104a4610dd8366004615855565b6135ea565b348015610de957600080fd5b50610509610df8366004615855565b6136fd565b348015610e0957600080fd5b50610509610e1836600461588e565b6137ee565b348015610e2957600080fd5b506105bc60085481565b61050961387e565b348015610e4757600080fd5b5061047a610e56366004615855565b60196020526000908152604090205460ff1681565b348015610e7757600080fd5b5061047a610e86366004615447565b6001600160a01b03918216600090815260076020908152604080832093909416825291909152205460ff1690565b348015610ec057600080fd5b506105bc7f000000000000000000000000000000000000000000000000000000000000000081565b348015610ef457600080fd5b50610509610f0336600461542d565b61398c565b60006001600160e01b031982166380ac58cd60e01b1480610f3957506001600160e01b03198216635b5e139f60e01b145b80610f5457506001600160e01b0319821663780e9d6360e01b145b80610f6f57506001600160e01b0319821663152a902d60e11b145b80610f8a57506301ffc9a760e01b6001600160e01b03198316145b92915050565b606060028054610f9f90615c25565b80601f0160208091040260200160405190810160405280929190818152602001828054610fcb90615c25565b80156110185780601f10610fed57610100808354040283529160200191611018565b820191906000526020600020905b815481529060010190602001808311610ffb57829003601f168201915b5050505050905090565b600061102d82613a54565b61104a576040516333d1c03960e21b815260040160405180910390fd5b506000908152600660205260409020546001600160a01b031690565b600061107182612325565b9050806001600160a01b0316836001600160a01b031614156110a65760405163250fdee360e21b815260040160405180910390fd5b336001600160a01b038216148015906110e357506001600160a01b038116600090815260076020908152604080832033845290915290205460ff16155b15611101576040516367d9dca160e11b815260040160405180910390fd5b61110c838383613a7f565b505050565b600d54600160281b900460ff166111595760405162461bcd60e51b815260206004820152600c60248201526b139bdd08119a5b9a5cda195960a21b6044820152606401610409565b600d5460ff1661119d5760405162461bcd60e51b815260206004820152600f60248201526e139bdd08125b9a5d1a585b1a5e9959608a1b6044820152606401610409565b6000808052600a602052600080516020615d30833981519152546001600160a01b031633146111fc5760405162461bcd60e51b81526020600482015260186024820152600080516020615d108339815191526044820152606401610409565b61ffff8316600090815260176020526040902054839060ff16156112505760405162461bcd60e51b815260206004820152600b60248201526a4f6e6c792048756d616e7360a81b6044820152606401610409565b84518061128e5760405162461bcd60e51b815260206004820152600c60248201526b43494420697320656d70747960a01b6044820152606401610409565b61ffff851660009081526019602052604090205460ff166112f15760405162461bcd60e51b815260206004820152601c60248201527f55706772616465205265717565737420466565204e6f742050616964000000006044820152606401610409565b61ffff85166000908152601960209081526040808320805460ff1916905560168252909120875161132492890190615278565b5061ffff85166000908152601560205260409020805460ff1916600117905583156113685761ffff85166000908152601760205260409020805460ff191660011790555b60405161ffff861681527f02375e2ab6ce816f82cbad1e57b14c842f3079a43885dcdfbdbebec69baee0c29060200160405180910390a1505050505050565b61110c838383613adb565b6014546001600160a01b038116906000906064906113da90600160a01b900460ff1685615ba0565b6113e49190615b8c565b90509250929050565b6113f681613d0e565b50565b600d546301000000900460ff166114425760405162461bcd60e51b815260206004820152600d60248201526c139bdd081058dd1a5d985d1959609a1b6044820152606401610409565b611e618161144f60005490565b6114599190615b4f565b111561149f5760405162461bcd60e51b81526020600482015260156024820152745265636569766520546f204d617820537570706c7960581b6044820152606401610409565b6003816114ab33613ef3565b6114b59190615b4f565b11156115035760405162461bcd60e51b815260206004820152601f60248201527f5265636569766520546f204d6178204d696e74205065722041646472657373006044820152606401610409565b3461151566f8b0a10e47000083615ba0565b11156115575760405162461bcd60e51b81526020600482015260116024820152702737ba1022b737bab3b4399022ba3432b960791b6044820152606401610409565b6115613382613f4e565b600e54604051634d4ffdef60e11b815234600482018190526000926001600160a01b031691639a9ffbde91906024015b6020604051808303818588803b1580156115aa57600080fd5b505af11580156115be573d6000803e3d6000fd5b50505050506040513d601f19601f820116820180604052508101906115e39190615698565b9050806116285760405162461bcd60e51b8152602060048201526013602482015272195d1a081d1c985b9cd9995c8819985a5b1959606a1b6044820152606401610409565b5050565b600061163783612534565b82106116905760405162461bcd60e51b815260206004820152602260248201527f455243373231413a206f776e657220696e646578206f7574206f6620626f756e604482015261647360f01b6064820152608401610409565b600061169f6001546000540390565b905060008060005b8381101561175c57600081815260046020908152604091829020825160608101845290546001600160a01b038116808352600160a01b820467ffffffffffffffff1693830193909352600160e01b900460ff161515928101929092521561170d57805192505b876001600160a01b0316836001600160a01b03161415611749578684141561173b57509350610f8a92505050565b8361174581615c5a565b9450505b508061175481615c5a565b9150506116a7565b5060405162461bcd60e51b815260206004820152602e60248201527f455243373231413a20756e61626c6520746f2067657420746f6b656e206f662060448201527f6f776e657220627920696e6465780000000000000000000000000000000000006064820152608401610409565b61ffff8116600090815260176020526040902054819060ff161561181f5760405162461bcd60e51b815260206004820152600b60248201526a4f6e6c792048756d616e7360a81b6044820152606401610409565b6002600b5414156118725760405162461bcd60e51b815260206004820152601f60248201527f5265656e7472616e637947756172643a207265656e7472616e742063616c6c006044820152606401610409565b6002600b55600d5460ff166118bb5760405162461bcd60e51b815260206004820152600f60248201526e139bdd08125b9a5d1a585b1a5e9959608a1b6044820152606401610409565b6118c88261ffff16613a54565b6119075760405162461bcd60e51b815260206004820152601060248201526f546f6b656e204e6f742045786973747360801b6044820152606401610409565b60006119168361ffff16613f68565b80519091506001600160a01b031633146119615760405162461bcd60e51b815260206004820152600c60248201526b24b9902737ba1027bbb732b960a11b6044820152606401610409565b61196e8361ffff16614084565b600e548151604051635b33720360e11b81526001600160a01b039182166004820152600092919091169063b666e40690602401602060405180830381600087803b1580156119bb57600080fd5b505af11580156119cf573d6000803e3d6000fd5b505050506040513d601f19601f820116820180604052508101906119f39190615698565b905080611a425760405162461bcd60e51b815260206004820152600e60248201527f6275796261636b206661696c65640000000000000000000000000000000000006044820152606401610409565b50506001600b555050565b61110c83838360405180602001604052806000815250612f15565b6000808052600a602052600080516020615d30833981519152546001600160a01b03163314611ac75760405162461bcd60e51b81526020600482015260186024820152600080516020615d108339815191526044820152606401610409565b600d54600160281b900460ff1615611b145760405162461bcd60e51b815260206004820152601060248201526f105b1c9958591e48119a5b9a5cda195960821b6044820152606401610409565b600d5460ff16611b585760405162461bcd60e51b815260206004820152600f60248201526e139bdd08125b9a5d1a585b1a5e9959608a1b6044820152606401610409565b600d54610100900460ff16611b9f5760405162461bcd60e51b815260206004820152600d60248201526c139bdd081058dd1a5d985d1959609a1b6044820152606401610409565b50600d805461ff0019169055565b60408051600a808252610160820190925260609160009190816020015b611c27604051806101200160405280600060ff16815260200160008152602001600081526020016000815260200160008152602001600081526020016000151581526020016000815260200160006001600160a01b031681525090565b815260200190600190039081611bca57905050905060015b600a60ff821611611d215760ff808216600090815260186020908152604091829020825161012081018452815485168152600180830154938201939093526002820154938101939093526003810154606084015260048101546080840152600581015460a08401526006810154909316151560c0830152600783015460e08301526008909201546001600160a01b0316610100820152908390611ce29084615bd6565b60ff1681518110611d0357634e487b7160e01b600052603260045260246000fd5b60200260200101819052508080611d1990615c75565b915050611c3f565b50919050565b6000808052600a602052600080516020615d30833981519152546001600160a01b03163314611d865760405162461bcd60e51b81526020600482015260186024820152600080516020615d108339815191526044820152606401610409565b82518015611da3578351611da1906011906020870190615278565b505b82518015611dc0578351611dbe906013906020870190615278565b505b5050505050565b6000808052600a602052600080516020615d30833981519152546001600160a01b03163314611e265760405162461bcd60e51b81526020600482015260186024820152600080516020615d108339815191526044820152606401610409565b600d5460ff16611e6a5760405162461bcd60e51b815260206004820152600f60248201526e139bdd08125b9a5d1a585b1a5e9959608a1b6044820152606401610409565b600d54600160281b900460ff1615611eb75760405162461bcd60e51b815260206004820152601060248201526f105b1c9958591e48119a5b9a5cda195960821b6044820152606401610409565b600d5462010000900460ff1615611f045760405162461bcd60e51b8152602060048201526011602482015270105b1c9958591e481058dd1a5d985d1959607a1b6044820152606401610409565b50600d805462ff0000191662010000179055565b6000808052600a602052600080516020615d30833981519152546001600160a01b03163314611f775760405162461bcd60e51b81526020600482015260186024820152600080516020615d108339815191526044820152606401610409565b600d5460ff1615611fca5760405162461bcd60e51b815260206004820152601360248201527f416c726561647920496e697469616c697a6564000000000000000000000000006044820152606401610409565b600d54600160281b900460ff16156120175760405162461bcd60e51b815260206004820152601060248201526f105b1c9958591e48119a5b9a5cda195960821b6044820152606401610409565b600d54610100900460ff16156120635760405162461bcd60e51b8152602060048201526011602482015270105b1c9958591e481058dd1a5d985d1959607a1b6044820152606401610409565b600d805460ff19166001179055604080516020808802820181019092528681526120c99188908890819060009085015b828210156120bf576120b0606083028601368190038101906157e0565b81526020019060010190612093565b5050505050614223565b600d805461010061ff0019909116179055604080516060810182526001600160a01b038681168083528582166020808501829052928816938501849052600e80546001600160a01b03199081169093179055600f80548316909117905560108054909116831790558251808401909352818352600a9201919091526014805474ffffffffffffffffffffffffffffffffffffffffff1916909117600560a11b179055611dbe565b600061217f6001546000540390565b82106121d95760405162461bcd60e51b815260206004820152602360248201527f455243373231413a20676c6f62616c20696e646578206f7574206f6620626f756044820152626e647360e81b6064820152608401610409565b5090565b600d54600090610100900460ff166122275760405162461bcd60e51b815260206004820152600d60248201526c139bdd081058dd1a5d985d1959609a1b6044820152606401610409565b8160ff1660011115801561223f5750600a60ff831611155b61228b5760405162461bcd60e51b815260206004820152601360248201527f646179206973206f7574206f662072616e6765000000000000000000000000006044820152606401610409565b60ff8083166000908152601860209081526040918290208251610120810184528154851681526001820154928101929092526002810154928201929092526003820154606082015260048201546080820152600582015460a08201526006820154909216151560c0830152600781015460e0830152600801546001600160a01b031661010082015261231c8161467a565b9150505b919050565b600061233082613f68565b5192915050565b600d54600160281b900460ff1661237f5760405162461bcd60e51b815260206004820152600c60248201526b139bdd08119a5b9a5cda195960a21b6044820152606401610409565b600d5460ff166123c35760405162461bcd60e51b815260206004820152600f60248201526e139bdd08125b9a5d1a585b1a5e9959608a1b6044820152606401610409565b61ffff8116600090815260176020526040902054819060ff16156124175760405162461bcd60e51b815260206004820152600b60248201526a4f6e6c792048756d616e7360a81b6044820152606401610409565b6124248261ffff16613a54565b6124635760405162461bcd60e51b815260206004820152601060248201526f546f6b656e204e6f742045786973747360801b6044820152606401610409565b34600c5411156124a95760405162461bcd60e51b81526020600482015260116024820152702737ba1022b737bab3b4399022ba3432b960791b6044820152606401610409565b61ffff821660009081526019602090815260408220805460ff19166001179055908052600a9052600080516020615d30833981519152546001600160a01b03166124f38134614730565b6040805161ffff851681523460208201527f0154c2dfb98437384198b52913095489510f87da0fcc18a7a76717706e1d0085910160405180910390a1505050565b60006001600160a01b03821661255d576040516323d3ad8160e21b815260040160405180910390fd5b506001600160a01b031660009081526005602052604090205467ffffffffffffffff1690565b6009546001600160a01b031633146125dd5760405162461bcd60e51b815260206004820181905260248201527f4f776e61626c653a2063616c6c6572206973206e6f7420746865206f776e65726044820152606401610409565b6125e760006147d3565b565b6000808052600a602052600080516020615d30833981519152546001600160a01b031633146126485760405162461bcd60e51b81526020600482015260186024820152600080516020615d108339815191526044820152606401610409565b600d54600160281b900460ff16156126955760405162461bcd60e51b815260206004820152601060248201526f105b1c9958591e48119a5b9a5cda195960821b6044820152606401610409565b600d546301000000900460ff166126de5760405162461bcd60e51b815260206004820152600d60248201526c139bdd081058dd1a5d985d1959609a1b6044820152606401610409565b50600d805465ff00ffffff001916600160281b179055565b6000808052600a602052600080516020615d30833981519152546001600160a01b031633146127555760405162461bcd60e51b81526020600482015260186024820152600080516020615d108339815191526044820152606401610409565b600d54640100000000900460ff16156127b05760405162461bcd60e51b815260206004820152601060248201527f416c72656164792052657665616c6564000000000000000000000000000000006044820152606401610409565b8151806127ee5760405162461bcd60e51b815260206004820152600c60248201526b43494420497320456d70747960a01b6044820152606401610409565b8251612801906013906020860190615278565b5050600d805464ff0000000019166401000000001790555050565b6000808052600a602052600080516020615d30833981519152546001600160a01b0316331461287b5760405162461bcd60e51b81526020600482015260186024820152600080516020615d108339815191526044820152606401610409565b601080546001600160a01b0319166001600160a01b03841690811790915560408051808201909152818152600a6020909101526014805474ffffffffffffffffffffffffffffffffffffffffff1916909117600560a11b1790555050565b606060038054610f9f90615c25565b60ff81166000908152600a60205260409020600101546001600160a01b031633146129555760405162461bcd60e51b815260206004820152601660248201527f63616c6c6572206973206e6f742070726f706f736564000000000000000000006044820152606401610409565b60ff81166000818152600a602052604080822080546001820180546001600160a01b038082166001600160a01b03198086168217909655949091169091559251921693909284927f75d4894fae1c15d56c47e57d8fd94120a15786f520ddf423b53d7bee9324ee4b9190a45050565b60ff82166000908152600a602052604090205482906001600160a01b03163314612a1e5760405162461bcd60e51b81526020600482015260186024820152600080516020615d108339815191526044820152606401610409565b6001600160a01b038216612a745760405162461bcd60e51b815260206004820152601b60248201527f70726f706f7365642061646472657373206973206e6f742073657400000000006044820152606401610409565b60ff83166000908152600a60205260409020546001600160a01b0383811691161415612b085760405162461bcd60e51b815260206004820152603660248201527f70726f706f7365642061646472657373206973206e6f7420646966666572656e60448201527f742066726f6d2063757272656e742061646472657373000000000000000000006064820152608401610409565b60ff83166000818152600a60205260408082206001810180546001600160a01b0319166001600160a01b038881169182179092559154925191949216927fec584e355ff3c59e7a9d34bfb18dec6a0db876a29b47afa136b8acbed3b62d2491a4505050565b600d5460009060ff16612bb45760405162461bcd60e51b815260206004820152600f60248201526e139bdd08125b9a5d1a585b1a5e9959608a1b6044820152606401610409565b6000612c2e878787604051602001612bce939291906159a7565b60408051601f1981840301815282825280516020918201207f19457468657265756d205369676e6564204d6573736167653a0a33320000000084830152603c8085019190915282518085039091018152605c909301909152815191012090565b600f54604080516020601f88018190048102820181019092528681529293506001600160a01b0390911691612c8091849190889088908190840183828082843760009201919091525061482592505050565b6001600160a01b031614979650505050505050565b6000808052600a602052600080516020615d30833981519152546001600160a01b03163314612cf45760405162461bcd60e51b81526020600482015260186024820152600080516020615d108339815191526044820152606401610409565b600d54600160281b900460ff1615612d415760405162461bcd60e51b815260206004820152601060248201526f105b1c9958591e48119a5b9a5cda195960821b6044820152606401610409565b600d546301000000900460ff1615612d8f5760405162461bcd60e51b8152602060048201526011602482015270105b1c9958591e481058dd1a5d985d1959607a1b6044820152606401610409565b600d5462010000900460ff16612de75760405162461bcd60e51b815260206004820152600e60248201527f5072696f726974792049737375650000000000000000000000000000000000006044820152606401610409565b50600d805463ff00000019166301000000179055565b6000808052600a602052600080516020615d30833981519152546001600160a01b03163314612e5c5760405162461bcd60e51b81526020600482015260186024820152600080516020615d108339815191526044820152606401610409565b50600e80546001600160a01b0319166001600160a01b0392909216919091179055565b6001600160a01b038216331415612ea95760405163b06307db60e01b815260040160405180910390fd5b3360008181526007602090815260408083206001600160a01b03871680855290835292819020805460ff191686151590811790915590519081529192917f17307eab39ab6107e8899845ad3d59bd9653f200f220920489ca2b5937696c31910160405180910390a35050565b612f20848484613adb565b6001600160a01b0383163b15158015612f425750612f4084848484614849565b155b15612f60576040516368d2bf6b60e11b815260040160405180910390fd5b50505050565b600d5462010000900460ff16612fae5760405162461bcd60e51b815260206004820152600d60248201526c139bdd081058dd1a5d985d1959609a1b6044820152606401610409565b612fbb3386858585612b6d565b612ff75760405162461bcd60e51b815260206004820152600d60248201526c426164205369676e617475726560981b6044820152606401610409565b611e6160ff851661300760005490565b6130119190615b4f565b11156130575760405162461bcd60e51b81526020600482015260156024820152745265636569766520546f204d617820537570706c7960581b6044820152606401610409565b600061306233614940565b905060ff86166130728683615b67565b60ff1611156130c35760405162461bcd60e51b815260206004820152601760248201527f5265636569766520546f204d6178205175616e746974790000000000000000006044820152606401610409565b60018460018111156130e557634e487b7160e01b600052602160045260246000fd5b1415613110576130fe336130f98784615b67565b61498f565b61310b338660ff16613f4e565b613182565b3461312566f8b0a10e47000060ff8816615ba0565b11156131675760405162461bcd60e51b81526020600482015260116024820152702737ba1022b737bab3b4399022ba3432b960791b6044820152606401610409565b613175336130f98784615b67565b613182338660ff16613f4e565b3415611dbe57600e54604051634d4ffdef60e11b815234600482018190526000926001600160a01b031691639a9ffbde91906024016020604051808303818588803b1580156131d057600080fd5b505af11580156131e4573d6000803e3d6000fd5b50505050506040513d601f19601f820116820180604052508101906132099190615698565b90508061324e5760405162461bcd60e51b8152602060048201526013602482015272195d1a081d1c985b9cd9995c8819985a5b1959606a1b6044820152606401610409565b50505050505050565b600d54610100900460ff1661329e5760405162461bcd60e51b815260206004820152600d60248201526c139bdd081058dd1a5d985d1959609a1b6044820152606401610409565b8060ff166001111580156132b65750600a60ff821611155b6133025760405162461bcd60e51b815260206004820152601360248201527f446179204973204f7574204f662052616e6765000000000000000000000000006044820152606401610409565b60ff81166000908152601860205260409020600101544210156133675760405162461bcd60e51b815260206004820152600f60248201527f4e6f7420537461727465642059657400000000000000000000000000000000006044820152606401610409565b60ff81166000908152601860205260409020600201544211156133b65760405162461bcd60e51b8152602060048201526007602482015266115e1c1a5c995960ca1b6044820152606401610409565b60ff8082166000908152601860209081526040808320815161012081018352815486168082526001830154948201949094526002820154928101929092526003810154606083015260048101546080830152600581015460a08301526006810154909416151560c0820152600784015460e08201526008909301546001600160a01b031661010084015261344990613f68565b60016000908152600a6020527fbbc70db1b6c7afd11e79c0fb0051300458f1a3acb8ee9789d9b6b26c61ad9bc7549192506001600160a01b039091169061348f8461467a565b9050816001600160a01b031683600001516001600160a01b0316146134eb5760405162461bcd60e51b81526020600482015260126024820152712130b21024b734ba34b0b634bd30ba34b7b760711b6044820152606401610409565b808460800151111561353f5760405162461bcd60e51b815260206004820152601560248201527f5265636569766520546f204261736520507269636500000000000000000000006044820152606401610409565b3481111561358f5760405162461bcd60e51b815260206004820152601060248201527f4e6f7420456e6f756768204574686572000000000000000000000000000000006044820152606401610409565b6135a18233866000015160ff166149ed565b60ff8516600090815260186020526040902060068101805460ff191660011790553460078201819055600890910180546001600160a01b03191633179055611dc0908390614730565b60606135f582613a54565b6136345760405162461bcd60e51b815260206004820152601060248201526f546f6b656e204e6f742045786973747360801b6044820152606401610409565b61ffff8216600090815260156020526040902054829060ff161561368d5761ffff81166000908152601660209081526040918290209151613676929101615a1c565b604051602081830303815290604052915050919050565b61ffff811660009081526017602052604090205460ff16156136c95760116136b861ffff8316614b73565b604051602001613676929190615a28565b600d54640100000000900460ff16156136eb5760136136b861ffff8316614b73565b60405161367690601290602001615a1c565b6000808052600a602052600080516020615d30833981519152546001600160a01b0316331461375c5760405162461bcd60e51b81526020600482015260186024820152600080516020615d108339815191526044820152606401610409565b600d54600160281b900460ff166137a45760405162461bcd60e51b815260206004820152600c60248201526b139bdd08119a5b9a5cda195960a21b6044820152606401610409565b600d5460ff166137e85760405162461bcd60e51b815260206004820152600f60248201526e139bdd08125b9a5d1a585b1a5e9959608a1b6044820152606401610409565b50600c55565b60ff81166000908152600a602052604090205481906001600160a01b031633146138485760405162461bcd60e51b81526020600482015260186024820152600080516020615d108339815191526044820152606401610409565b5060ff166000908152600a6020526040902080546001600160a01b0319168155600101805460ff60a01b1916600160a01b179055565b600d54600160281b900460ff166138c65760405162461bcd60e51b815260206004820152600c60248201526b139bdd08119a5b9a5cda195960a21b6044820152606401610409565b600d5460ff1661390a5760405162461bcd60e51b815260206004820152600f60248201526e139bdd08125b9a5d1a585b1a5e9959608a1b6044820152606401610409565b47806139585760405162461bcd60e51b815260206004820152601860248201527f436f6e74726163742042616c616e6365206973205a65726f00000000000000006044820152606401610409565b600e5460405163f5c79d3d60e01b8152600481018390526000916001600160a01b03169063f5c79d3d908490602401611591565b6009546001600160a01b031633146139e65760405162461bcd60e51b815260206004820181905260248201527f4f776e61626c653a2063616c6c6572206973206e6f7420746865206f776e65726044820152606401610409565b6001600160a01b038116613a4b5760405162461bcd60e51b815260206004820152602660248201527f4f776e61626c653a206e6577206f776e657220697320746865207a65726f206160448201526564647265737360d01b6064820152608401610409565b6113f6816147d3565b6000805482108015610f8a575050600090815260046020526040902054600160e01b900460ff161590565b60008281526006602052604080822080546001600160a01b0319166001600160a01b0387811691821790925591518593918516917f8c5be1e5ebec7d5bd14f71427d1e84f3dd0314c0f7b2291e5b200ac8c7c3b92591a4505050565b6000613ae682613f68565b9050600081600001516001600160a01b0316336001600160a01b03161480613b32575081516001600160a01b0316600090815260076020908152604080832033845290915290205460ff165b80613b4d575033613b4284611022565b6001600160a01b0316145b905080613b6d57604051632ce44b5f60e11b815260040160405180910390fd5b846001600160a01b031682600001516001600160a01b031614613ba25760405162a1148160e81b815260040160405180910390fd5b6001600160a01b038416613bc957604051633a954ecd60e21b815260040160405180910390fd5b613bd96000848460000151613a7f565b6001600160a01b038581166000908152600560209081526040808320805467ffffffffffffffff1980821667ffffffffffffffff92831660001901831617909255898616808652838620805493841693831660019081018416949094179055898652600490945282852080546001600160e01b031916909417600160a01b429092169190910217909255908601808352912054909116613cc557600054811015613cc5578251600082815260046020908152604090912080549186015167ffffffffffffffff16600160a01b026001600160e01b03199092166001600160a01b03909316929092171790555b5082846001600160a01b0316866001600160a01b03167fddf252ad1be2c89b69c2b068fc378daa952ba7f163c4a11628f55a4df523b3ef60405160405180910390a45050505050565b60085481613d5e5760405162461bcd60e51b815260206004820152601860248201527f7175616e74697479206d757374206265206e6f6e7a65726f00000000000000006044820152606401610409565b60006001613d6c8484615b4f565b613d769190615bbf565b90506001613d8360005490565b613d8d9190615bbf565b811115613dac576001613d9f60005490565b613da99190615bbf565b90505b613db581613a54565b613e105760405162461bcd60e51b815260206004820152602660248201527f6e6f7420656e6f756768206d696e7465642079657420666f722074686973206360448201526506c65616e75760d41b6064820152608401610409565b815b818111613edf576000818152600460205260409020546001600160a01b0316613ecd576000613e4082613f68565b6040805160608101825282516001600160a01b03908116825260208085015167ffffffffffffffff908116828501908152958501511515848601908152600089815260049093529490912092518354955194511515600160e01b0260ff60e01b1995909216600160a01b026001600160e01b03199096169216919091179390931791909116919091179055505b80613ed781615c5a565b915050613e12565b50613eeb816001615b4f565b600855505050565b60006001600160a01b038216613f1c576040516335ebb31960e01b815260040160405180910390fd5b506001600160a01b031660009081526005602052604090205468010000000000000000900467ffffffffffffffff1690565b611628828260405180602001604052806000815250614ca5565b60408051606081018252600080825260208201819052918101919091528160005481101561406b57600081815260046020908152604091829020825160608101845290546001600160a01b0381168252600160a01b810467ffffffffffffffff1692820192909252600160e01b90910460ff161515918101829052906140695780516001600160a01b031615613fff579392505050565b5060001901600081815260046020908152604091829020825160608101845290546001600160a01b038116808352600160a01b820467ffffffffffffffff1693830193909352600160e01b900460ff1615159281019290925215614064579392505050565b613fff565b505b604051636f96cda160e11b815260040160405180910390fd5b600061408f82613f68565b90506140a16000838360000151613a7f565b80516001600160a01b039081166000908152600560209081526040808320805467ffffffffffffffff19811667ffffffffffffffff9182166000190182161790915585518516845281842080547fffffffffffffffff0000000000000000ffffffffffffffffffffffffffffffff81167001000000000000000000000000000000009182900484166001908101851690920217909155865188865260049094528285208054600160e01b9588166001600160e01b031990911617600160a01b42909416939093029290921760ff60e01b19169390931790559085018083529120549091166141db576000548110156141db578151600082815260046020908152604090912080549185015167ffffffffffffffff16600160a01b026001600160e01b03199092166001600160a01b03909316929092171790555b50805160405183916000916001600160a01b03909116907fddf252ad1be2c89b69c2b068fc378daa952ba7f163c4a11628f55a4df523b3ef908390a450506001805481019055565b611e61600a61423160005490565b61423b9190615b4f565b11156142815760405162461bcd60e51b81526020600482015260156024820152745265636569766520546f204d617820537570706c7960581b6044820152606401610409565b8051600a146142d25760405162461bcd60e51b815260206004820152601260248201527f42616420436f6e66696773204c656e67746800000000000000000000000000006044820152606401610409565b6001600052600a60208190527fbbc70db1b6c7afd11e79c0fb0051300458f1a3acb8ee9789d9b6b26c61ad9bc7546001600160a01b031690614315908290613f4e565b600a61432060005490565b146143625760405162461bcd60e51b81526020600482015260126024820152712130b21024b734ba34b0b634bd30ba34b7b760711b6044820152606401610409565b60005b600a60ff8216101561110c57828160ff168151811061439457634e487b7160e01b600052603260045260246000fd5b602002602001015160200151838260ff16815181106143c357634e487b7160e01b600052603260045260246000fd5b6020026020010151600001511161440a5760405162461bcd60e51b815260206004820152600b60248201526a42616420436f6e6669677360a81b6044820152606401610409565b60006040518061012001604052808360ff1681526020018360ff16620151806144339190615ba0565b61445d907f0000000000000000000000000000000000000000000000000000000000000000615b4f565b815260200161446d846001615b67565b61447d9060ff1662015180615ba0565b6144a7907f0000000000000000000000000000000000000000000000000000000000000000615b4f565b8152602001858460ff16815181106144cf57634e487b7160e01b600052603260045260246000fd5b6020026020010151600001518152602001858460ff168151811061450357634e487b7160e01b600052603260045260246000fd5b6020026020010151602001518152602001858460ff168151811061453757634e487b7160e01b600052603260045260246000fd5b6020026020010151604001518152602001600015158152602001858460ff168151811061457457634e487b7160e01b600052603260045260246000fd5b6020026020010151602001518152602001846001600160a01b0316815250905080601860008460016145a69190615b67565b60ff9081168252602080830193909352604091820160009081208551815490841660ff1991821617825586860151600180840191909155878601516002840155606088015160038401556080880151600484015560a0880151600584015560c088015160068401805491151591841691909117905560e0880151600784015561010090970151600890920180546001600160a01b039093166001600160a01b03199093169290921790915591871681526017909352912080549091169091179055508061467281615c75565b915050614365565b60008160c00151156146bd5760405162461bcd60e51b815260206004820152600c60248201526b105b1c9958591e4814dbdb1960a21b6044820152606401610409565b81602001514210156146d157506060015190565b81604001514211156146e557506080015190565b60008260200151426146f79190615bbf565b9050600061470761025883615b8c565b90508360a00151816147199190615ba0565b84606001516147289190615bbf565b949350505050565b60405182906000906001600160a01b0383169084908381818185875af1925050503d806000811461477d576040519150601f19603f3d011682016040523d82523d6000602084013e614782565b606091505b5050905080612f605760405162461bcd60e51b815260206004820152600f60248201527f5472616e73666572204661696c656400000000000000000000000000000000006044820152606401610409565b600980546001600160a01b038381166001600160a01b0319831681179093556040519116919082907f8be0079c531659141344cd1fd0a4f28419497f9722a3daafe3b4186f6b6457e090600090a35050565b60008060006148348585614cb2565b9150915061484181614d22565b509392505050565b604051630a85bd0160e11b81526000906001600160a01b0385169063150b7a029061487e903390899088908890600401615a5a565b602060405180830381600087803b15801561489857600080fd5b505af19250505080156148c8575060408051601f3d908101601f191682019092526148c5918101906156d0565b60015b614923573d8080156148f6576040519150601f19603f3d011682016040523d82523d6000602084013e6148fb565b606091505b50805161491b576040516368d2bf6b60e11b815260040160405180910390fd5b805181602001fd5b6001600160e01b031916630a85bd0160e11b149050949350505050565b60006001600160a01b0382166149695760405163561b93dd60e11b815260040160405180910390fd5b506001600160a01b0316600090815260056020526040902054600160c01b900460ff1690565b6001600160a01b0382166149b65760405163561b93dd60e11b815260040160405180910390fd5b6001600160a01b039091166000908152600560205260409020805460ff909216600160c01b0260ff60c01b19909216919091179055565b60006149f882613f68565b9050836001600160a01b031681600001516001600160a01b031614614a2f5760405162a1148160e81b815260040160405180910390fd5b614a3f6000838360000151613a7f565b6001600160a01b038481166000908152600560209081526040808320805467ffffffffffffffff1980821667ffffffffffffffff92831660001901831617909255888616808652838620805493841693831660019081018416949094179055888652600490945282852080546001600160e01b031916909417600160a01b429092169190910217909255908501808352912054909116614b2b57600054811015614b2b578151600082815260046020908152604090912080549185015167ffffffffffffffff16600160a01b026001600160e01b03199092166001600160a01b03909316929092171790555b5081836001600160a01b0316856001600160a01b03167fddf252ad1be2c89b69c2b068fc378daa952ba7f163c4a11628f55a4df523b3ef60405160405180910390a450505050565b606081614b975750506040805180820190915260018152600360fc1b602082015290565b8160005b8115614bc15780614bab81615c5a565b9150614bba9050600a83615b8c565b9150614b9b565b60008167ffffffffffffffff811115614bea57634e487b7160e01b600052604160045260246000fd5b6040519080825280601f01601f191660200182016040528015614c14576020820181803683370190505b5090505b841561472857614c29600183615bbf565b9150614c36600a86615c95565b614c41906030615b4f565b60f81b818381518110614c6457634e487b7160e01b600052603260045260246000fd5b60200101907effffffffffffffffffffffffffffffffffffffffffffffffffffffffffffff1916908160001a905350614c9e600a86615b8c565b9450614c18565b61110c8383836001614f23565b600080825160411415614ce95760208301516040840151606085015160001a614cdd87828585615139565b94509450505050614d1b565b825160401415614d135760208301516040840151614d08868383615226565b935093505050614d1b565b506000905060025b9250929050565b6000816004811115614d4457634e487b7160e01b600052602160045260246000fd5b1415614d4d5750565b6001816004811115614d6f57634e487b7160e01b600052602160045260246000fd5b1415614dbd5760405162461bcd60e51b815260206004820152601860248201527f45434453413a20696e76616c6964207369676e617475726500000000000000006044820152606401610409565b6002816004811115614ddf57634e487b7160e01b600052602160045260246000fd5b1415614e2d5760405162461bcd60e51b815260206004820152601f60248201527f45434453413a20696e76616c6964207369676e6174757265206c656e677468006044820152606401610409565b6003816004811115614e4f57634e487b7160e01b600052602160045260246000fd5b1415614ea85760405162461bcd60e51b815260206004820152602260248201527f45434453413a20696e76616c6964207369676e6174757265202773272076616c604482015261756560f01b6064820152608401610409565b6004816004811115614eca57634e487b7160e01b600052602160045260246000fd5b14156113f65760405162461bcd60e51b815260206004820152602260248201527f45434453413a20696e76616c6964207369676e6174757265202776272076616c604482015261756560f01b6064820152608401610409565b6000546001600160a01b038516614f4c57604051622e076360e81b815260040160405180910390fd5b83614f6a5760405163b562e8dd60e01b815260040160405180910390fd5b6001600160a01b038516600081815260056020908152604080832080546fffffffffffffffffffffffffffffffff19811667ffffffffffffffff8083168c0181169182176801000000000000000067ffffffffffffffff1990941690921783900481168c01811690920217909155858452600490925290912080546001600160e01b031916909217600160a01b42909216919091021790558080850183801561501c57506001600160a01b0387163b15155b156150e8575b60405182906001600160a01b038916906000907fddf252ad1be2c89b69c2b068fc378daa952ba7f163c4a11628f55a4df523b3ef908290a461506d6000888480600101955088614849565b61508a576040516368d2bf6b60e11b815260040160405180910390fd5b808214156150225782600054146150e35760405162461bcd60e51b815260206004820152601560248201527f5265656e7472616e63792070726f74656374696f6e00000000000000000000006044820152606401610409565b61512e565b5b6040516001830192906001600160a01b038916906000907fddf252ad1be2c89b69c2b068fc378daa952ba7f163c4a11628f55a4df523b3ef908290a4808214156150e9575b506000555050505050565b6000807f7fffffffffffffffffffffffffffffff5d576e7357a4501ddfe92f46681b20a0831115615170575060009050600361521d565b8460ff16601b1415801561518857508460ff16601c14155b15615199575060009050600461521d565b6040805160008082526020820180845289905260ff881692820192909252606081018690526080810185905260019060a0016020604051602081039080840390855afa1580156151ed573d6000803e3d6000fd5b5050604051601f1901519150506001600160a01b0381166152165760006001925092505061521d565b9150600090505b94509492505050565b6000807f7fffffffffffffffffffffffffffffffffffffffffffffffffffffffffffffff83168161525c60ff86901c601b615b4f565b905061526a87828885615139565b935093505050935093915050565b82805461528490615c25565b90600052602060002090601f0160209004810192826152a657600085556152ec565b82601f106152bf57805160ff19168380011785556152ec565b828001600101855582156152ec579182015b828111156152ec5782518255916020019190600101906152d1565b506121d99291505b808211156121d957600081556001016152f4565b600067ffffffffffffffff8084111561532357615323615cd5565b604051601f8501601f19908116603f0116810190828211818310171561534b5761534b615cd5565b8160405280935085815286868601111561536457600080fd5b858560208301376000602087830101525050509392505050565b80356001600160a01b038116811461232057600080fd5b60008083601f8401126153a6578182fd5b50813567ffffffffffffffff8111156153bd578182fd5b602083019150836020828501011115614d1b57600080fd5b80356002811061232057600080fd5b600082601f8301126153f4578081fd5b61540383833560208501615308565b9392505050565b803561ffff8116811461232057600080fd5b803560ff8116811461232057600080fd5b60006020828403121561543e578081fd5b6154038261537e565b60008060408385031215615459578081fd5b6154628361537e565b91506113e46020840161537e565b600080600060608486031215615484578081fd5b61548d8461537e565b925061549b6020850161537e565b9150604084013590509250925092565b600080600080608085870312156154c0578081fd5b6154c98561537e565b93506154d76020860161537e565b925060408501359150606085013567ffffffffffffffff8111156154f9578182fd5b8501601f81018713615509578182fd5b61551887823560208401615308565b91505092959194509250565b60008060408385031215615536578182fd5b61553f8361537e565b9150602083013561554f81615ceb565b809150509250929050565b6000806040838503121561556c578182fd5b6155758361537e565b946020939093013593505050565b60008060008060006080868803121561559a578081fd5b6155a38661537e565b94506155b16020870161541c565b93506155bf604087016153d5565b9250606086013567ffffffffffffffff8111156155da578182fd5b6155e688828901615395565b969995985093965092949392505050565b60008060008060006080868803121561560e578283fd5b853567ffffffffffffffff80821115615625578485fd5b818801915088601f830112615638578485fd5b813581811115615646578586fd5b89602060608302850101111561565a578586fd5b602092830197509550615670918801905061537e565b925061567e6040870161537e565b915061568c6060870161537e565b90509295509295909350565b6000602082840312156156a9578081fd5b815161540381615ceb565b6000602082840312156156c5578081fd5b813561540381615cf9565b6000602082840312156156e1578081fd5b815161540381615cf9565b6000602082840312156156fd578081fd5b813567ffffffffffffffff811115615713578182fd5b614728848285016153e4565b60008060408385031215615731578182fd5b823567ffffffffffffffff80821115615748578384fd5b615754868387016153e4565b93506020850135915080821115615769578283fd5b50615776858286016153e4565b9150509250929050565b600080600060608486031215615794578081fd5b833567ffffffffffffffff8111156157aa578182fd5b6157b6868287016153e4565b9350506157c56020850161540a565b915060408401356157d581615ceb565b809150509250925092565b6000606082840312156157f1578081fd5b6040516060810181811067ffffffffffffffff8211171561581457615814615cd5565b80604052508235815260208301356020820152604083013560408201528091505092915050565b60006020828403121561584c578081fd5b6154038261540a565b600060208284031215615866578081fd5b5035919050565b6000806040838503121561587f578182fd5b50508035926020909101359150565b60006020828403121561589f578081fd5b6154038261541c565b600080604083850312156158ba578182fd5b6154628361541c565b6000806000806000608086880312156158da578283fd5b6155a38661541c565b600081518084526158fb816020860160208601615bf9565b601f01601f19169290920160200192915050565b8054600090600181811c908083168061592957607f831692505b602080841082141561594957634e487b7160e01b86526022600452602486fd5b81801561595d576001811461596e5761599b565b60ff1986168952848901965061599b565b60008881526020902060005b868110156159935781548b82015290850190830161597a565b505084890196505b50505050505092915050565b606084901b6bffffffffffffffffffffffff1916815260f883901b7fff00000000000000000000000000000000000000000000000000000000000000166014820152600060028310615a0757634e487b7160e01b81526021600452602481fd5b5060f89190911b601582015260160192915050565b6000615403828461590f565b6000615a34828561590f565b602f60f81b81528351615a4e816001840160208801615bf9565b01600101949350505050565b60006001600160a01b03808716835280861660208401525083604083015260806060830152615a8c60808301846158e3565b9695505050505050565b602080825282518282018190526000919060409081850190868401855b82811015615b2f578151805160ff16855286810151878601528581015186860152606080820151908601526080808201519086015260a0808201519086015260c08082015115159086015260e08082015190860152610100908101516001600160a01b0316908501526101209093019290850190600101615ab3565b5091979650505050505050565b60208152600061540360208301846158e3565b60008219821115615b6257615b62615ca9565b500190565b600060ff821660ff84168060ff03821115615b8457615b84615ca9565b019392505050565b600082615b9b57615b9b615cbf565b500490565b6000816000190483118215151615615bba57615bba615ca9565b500290565b600082821015615bd157615bd1615ca9565b500390565b600060ff821660ff841680821015615bf057615bf0615ca9565b90039392505050565b60005b83811015615c14578181015183820152602001615bfc565b83811115612f605750506000910152565b600181811c90821680615c3957607f821691505b60208210811415611d2157634e487b7160e01b600052602260045260246000fd5b6000600019821415615c6e57615c6e615ca9565b5060010190565b600060ff821660ff811415615c8c57615c8c615ca9565b60010192915050565b600082615ca457615ca4615cbf565b500690565b634e487b7160e01b600052601160045260246000fd5b634e487b7160e01b600052601260045260246000fd5b634e487b7160e01b600052604160045260246000fd5b80151581146113f657600080fd5b6001600160e01b0319811681146113f657600080fdfe63616c6c6572206973206e6f7420617574686f72697a6564000000000000000013da86008ba1c6922daee3e07db95305ef49ebced9f5467a0b8613fcc6b343e3a2646970667358221220bd18473091431456d988db562992b33e7409c43e4135ef39ceda9899ff7a94c764736f6c63430008040033",
  "linkReferences": {},
  "deployedLinkReferences": {}
}